{
  "contractName": "Greeter",
  "abi": [
    {
      "inputs": [],
      "payable": false,
      "stateMutability": "nonpayable",
      "type": "constructor"
    },
    {
      "constant": true,
      "inputs": [],
      "name": "greet",
      "outputs": [
        {
          "name": "",
          "type": "string"
        }
      ],
      "payable": false,
      "stateMutability": "view",
      "type": "function"
    },
    {
      "constant": true,
      "inputs": [],
      "name": "owner",
      "outputs": [
        {
          "name": "",
          "type": "address"
        }
      ],
      "payable": false,
      "stateMutability": "view",
      "type": "function"
    }
  ],
  "bytecode": "0x60806040526040805190810160405280600d81526020017f48656c6c6f2c20576f726c6421000000000000000000000000000000000000008152506000908051906020019061004f9291906100a3565b5034801561005c57600080fd5b5033600160006101000a81548173ffffffffffffffffffffffffffffffffffffffff021916908373ffffffffffffffffffffffffffffffffffffffff160217905550610148565b828054600181600116156101000203166002900490600052602060002090601f016020900481019282601f106100e457805160ff1916838001178555610112565b82800160010185558215610112579182015b828111156101115782518255916020019190600101906100f6565b5b50905061011f9190610123565b5090565b61014591905b80821115610141576000816000905550600101610129565b5090565b90565b610230806101576000396000f30060806040526004361061004c576000357c0100000000000000000000000000000000000000000000000000000000900463ffffffff1680638da5cb5b14610051578063cfae3217146100a8575b600080fd5b34801561005d57600080fd5b50610066610138565b604051808273ffffffffffffffffffffffffffffffffffffffff1673ffffffffffffffffffffffffffffffffffffffff16815260200191505060405180910390f35b3480156100b457600080fd5b506100bd610162565b6040518080602001828103825283818151815260200191508051906020019080838360005b838110156100fd5780820151818401526020810190506100e2565b50505050905090810190601f16801561012a5780820380516001836020036101000a031916815260200191505b509250505060405180910390f35b6000600160009054906101000a900473ffffffffffffffffffffffffffffffffffffffff16905090565b606060008054600181600116156101000203166002900480601f0160208091040260200160405190810160405280929190818152602001828054600181600116156101000203166002900480156101fa5780601f106101cf576101008083540402835291602001916101fa565b820191906000526020600020905b8154815290600101906020018083116101dd57829003601f168201915b50505050509050905600a165627a7a723058208b1c8e161e4e1d5f6b8aed9c17144a64bfdca9e98289727a067c76e52f1b87b20029",
  "source": "pragma solidity >=0.4.22 <0.9.0;\r\n\r\n\r\ncontract Greeter {\r\n  string private _greeting = \"Hello, World!\";\r\n  address private _owner;\r\n\r\n  constructor() public  {\r\n    _owner = msg.sender;\r\n  }\r\n\r\n  modifier onlyOwner() {\r\n  require(\r\n    msg.sender == _owner,\r\n    \"Ownable: caller is not the owner\"\r\n  );\r\n  _;\r\n}\r\n\r\n  function greet() external view returns(string memory) {\r\n    return _greeting;\r\n  }\r\n\r\n  /*function setGreeting(string calldata  greeting) external onlyOwner {\r\n  _greeting = greeting;\r\n}*/\r\n\r\n  /*function setGreeting(string calldata greeting) external {\r\n    _greeting = greeting;\r\n  } */\r\n\r\n  function owner() public view returns(address) {\r\n    return _owner;\r\n  }\r\n}",
  "sourcePath": "C:\\Workspace\\Repo\\Smart Contract Solidity\\greeter\\contracts\\Greeter.sol",
  "compiler": {
    "name": "solc",
    "version": "0.4.22+commit.4cb486ee.Emscripten.clang"
  },
  "schemaVersion": "3.4.5",
  "updatedAt": "2022-02-26T17:14:09.363Z",
  "devdoc": {
    "methods": {}
  },
  "userdoc": {
    "methods": {}
  }
}